S00F00004C45445F7365712E7372656398
S11300000C9434000C943E000C943E000C943E007E
S11300100C943E000C943E000C943E000C943E0064
S11300200C943E000C943E000C943E000C943E0054
S11300300C943E000C943E000C943E000C943E0044
S11300400C943E000C943E000C943E000C943E0034
S11300500C943E000C943E000C943E000C943E0024
S11300600C943E000C943E0011241FBECFEFD8E048
S1130070DEBFCDBF0E9440000C947F000C940000B2
S113008084B18F6384B98AB1806C8AB985B1807C6C
S113009085B98BB18F738BB980E02EC08630B0F4F4
S11300A09BB19F739BB921E030E0082E02C0220F60
S11300B0331F0A94E2F725B92FEF31EE94E0215073
S11300C030409040E1F700C0000015C095B1907C2D
S11300D095B921E030E0082E02C0220F331F0A94A4
S11300E0E2F72BB92FEF31EE94E0215030409040ED
S11300F0E1F700C000008F5F883080F2CDCFF89424
S1050100FFCF2B
S9030000FC
