S01000004C43445F31365F322E73726563EA
S11300000C9434000C9451000C9451000C94510045
S11300100C9451000C9451000C9451000C9419014F
S11300200C9451000C9451000C9451000C94510008
S11300300C9451000C9451000C9451000C945100F8
S11300400C9451000C9451000C9451000C945100E8
S11300500C9451000C9451000C9451000C945100D8
S11300600C9451000C94510011241FBECFEFD8E022
S1130070DEBFCDBF11E0A0E0B1E0E2ECFAE002C0E7
S113008005900D92A633B107D9F721E0A6E3B1E0BC
S113009001C01D92A73AB207E1F70E943E010C94F9
S11300A05F050C94000085B1886085B98FE99FE0F5
S11300B00197F1F700C0000085B1877F85B99FEFF4
S11300C020E782E0915020408040E1F700C000002A
S11300D008959BB1937C9BB983FF03C09BB194604B
S11300E09BB982FF03C09BB198609BB981FF03C099
S11300F09BB190619BB980FF03C08BB180628BB9C7
S11301000E9453000895CF93C82F613021F485B124
S1130110806185B903C085B18F7E85B98C2F8295A6
S11301208F700E9469008C2F8F700E946900CF919C
S11301300895CF93C82F60E00E948300C150C2305D
S113014030F48FE39FE10197F1F700C00000CF91F5
S11301500895882311F090E401C090E0862F8F70F9
S1130160890F80680E949900089561E00E948300CD
S11301700895CF93DF93EC0103C021960E94B5004C
S113018088818111FACFDF91CF91089581E00E9497
S11301909900089584B1806184B984B1886084B978
S11301A08AB18C638AB984B1806284B985B18F7D48
S11301B085B92FE788E391E0215080409040E1F732
S11301C000C0000085B1877F85B983E00E94690083
S11301D08FEF9CE70197F1F700C0000083E00E94D5
S11301E069008FE99FE00197F1F700C0000083E008
S11301F00E9469008FE99FE00197F1F700C00000B9
S113020082E00E9469008FE99FE00197F1F700C046
S1130210000088E20E94990088E00E94990081E031
S11302200E94990086E00E9499008CE00E94990047
S113023008951F920F920FB60F9211248F939F93DC
S1130240AF93BF9380913F0190914001A0914101F0
S1130250B09142010196A11DB11D80933F0190937D
S11302604001A0934101B0934201BF91AF919F918E
S11302708F910F900FBE0F901F9018950E94CA0087
S113028060E080E00E94A90080E091E00E94B90053
S113029060E081E00E94A90080E191E00E94B90041
S11302A084B18B7F84B985B1846085B9A0EBB0E05B
S11302B01C92E1EBF0E010828C9182608C9380813F
S11302C0846080831092B20089EF8093B300E0E7EA
S11302D0F0E0808182608083789410923B011092D8
S11302E03C0110923D0110923E0180913B0190919E
S11302F03C01A0913D01B0913E014AE063E471E00C
S11303000E9440020E94C60080913B0190913C01F2
S1130310A0913D01B0913E01BF93AF939F938F9302
S113032083E291E09F938F9383E491E09F938F9373
S11303300E94650260E080E00E94A90089E291E0E9
S11303400E94B90060E081E00E94A90083E491E08A
S11303500E94B9008DB79EB708960FB6F8949EBF59
S11303600FBE8DBF1A9918C080913A018111FACF3E
S113037081E080933A0180913F0190914001A091E6
S11303804101B09142018093360190933701A093CB
S11303903801B0933901E6CF80913A01813011F7E9
S11303A080913F0190914001A0914101B09142019F
S11303B040913601509137016091380170913901B3
S11303C0841B950BA60BB70B10923A0110923601C1
S11303D0109237011092380110923901803D9740F4
S11303E0A105B105A0F480913B0190913C01A0913D
S11303F03D01B0913E010196A11DB11D80933B01C9
S113040090933C01A0933D01B0933E0108C010922B
S11304103B0110923C0110923D0110923E018091EB
S11304203B0190913C01A0913D01B0913E01BF93ED
S1130430AF939F938F9383E291E09F938F9383E491
S113044091E09F938F930E9465020E94C60060E032
S113045080E00E94A90089E291E00E94B90060E076
S113046081E00E94A90083E491E00E94B9008DB765
S11304709EB708960FB6F8949EBF0FBE8DBF72CF7D
S1130480BB274A3031F4992322F4BDE2909581953B
S11304909F4F0C944C02BB27FB015527AA27880FBA
S11304A0991FAA1FA41710F0A41B83955051B9F7E4
S11304B0A05DAA3308F0A95DA193009779F7B11163
S11304C0B1931192CB010C947E04AEE0B0E0EBE664
S11304D0F2E00C9436050D891E8986E08C831A831C
S11304E009838FEF9FE79E838D83AE01475E5F4F45
S11304F06F89788DCE0101960E948702EF81F8857D
S1130500E00FF11F10822E96E4E00C945205ABE04C
S1130510B0E0EDE8F2E00C9428056C017B018A015F
S1130520FC0117821682838181FFCCC1CE01019622
S11305303C01F6019381F70193FD859193FF81912D
S11305407F01882309F4BAC1853239F493FD85917A
S113055093FF81917F01853229F4B60190E00E94D6
S11305608E04E7CF912C212C312CFFE1F315D8F028
S11305708B3279F038F4803279F08332A1F4232D70
S113058020611DC08D3261F0803369F4232D216018
S113059016C0832D8260382EE32DE4603E2E2AC0DF
S11305A0F32DF8601DC037FC2DC020ED280F2A3034
S11305B040F08E32B9F436FC81C1232D2064322EF2
S11305C019C036FE06C08AE0989E200D1124922E92
S11305D011C0EAE02E9E200D1124222EF32DF0628C
S11305E03F2E08C08C3621F4832D8068382E02C03B
S11305F0883641F4F70193FD859193FF81917F0142
S11306008111B3CF982F9F7D9554933028F40C5FBC
S11306101F4F9FE399830DC0833631F0833771F008
S1130620833509F059C021C0F801808189830E5FA8
S11306301F4F88248394912C530113C02801F2E0A6
S11306404F0E511CF801A080B18036FE03C0692D05
S113065070E002C06FEF7FEFC5010E9473044C018C
S11306608201F32DFF773F2E16C0280122E0420EAF
S1130670511CF801A080B18036FE03C0692D70E0E2
S113068002C06FEF7FEFC5010E9468044C01F32D97
S1130690F0683F2E820133FC1BC0822D90E0881647
S11306A09906B0F4B60180E290E00E948E042A9488
S11306B0F4CFF50137FC859137FE81915F01B601D6
S11306C090E00E948E0421102A9421E0821A91085D
S11306D08114910471F7E8C0843611F0893641F52C
S11306E0F80137FE07C060817181828193810C5FBC
S11306F01F4F08C060817181072E000C880B990B75
S11307000E5F1F4FF32DFF763F2E97FF09C0909584
S11307108095709561957F4F8F4F9F4FF0683F2E66
S11307202AE030E0A3010E94CA04882E861845C03E
S1130730853731F4232D2F7EB22E2AE030E025C0F8
S1130740932D997FB92E8F36C1F018F4883579F03E
S1130750B5C0803719F0883721F0B0C0E92FE061C7
S1130760BE2EB4FE0DC0FB2DF460BF2E09C034FEB6
S11307700AC0292F2660B22E06C028E030E005C04A
S113078020E130E002C020E132E0F801B7FE07C00A
S113079060817181828193810C5F1F4F06C06081EB
S11307A0718180E090E00E5F1F4FA3010E94CA0494
S11307B0882E8618FB2DFF773F2E36FE0DC0232D85
S11307C02E7FA22E891458F434FE0BC032FC09C0CB
S11307D0832D8E7EA82E05C0B82CA32C03C0B82C64
S11307E001C0B92CA4FE0FC0FE01E80DF11D8081EB
S11307F0803321F49A2D997EA92E09C0A2FE06C049
S1130800B394B39404C08A2D867809F0B394A3FCFE
S113081011C0A0FE06C0B21488F4280C922C9B18B8
S11308200EC0B21460F4B60180E290E00E948E041F
S1130830B394F7CFB21418F42B1802C0982C212CBF
S1130840A4FE10C0B60180E390E00E948E04A2FED4
S113085017C0A1FC03C088E790E002C088E590E0DF
S1130860B6010CC08A2D867859F0A1FE02C08BE235
S113087001C080E2A7FC8DE2B60190E00E948E04E4
S1130880891438F4B60180E390E00E948E049A94AF
S1130890F7CF8A94F301E80DF11D8081B60190E051
S11308A00E948E048110F5CF222009F442CEB601B5
S11308B080E290E00E948E042A94F6CFF6018681AD
S11308C0978102C08FEF9FEF2B96E2E10C944405D1
S11308D0FC010590615070400110D8F78095909507
S11308E08E0F9F1F0895FC0161507040019001100C
S11308F0D8F7809590958E0F9F1F0895DC01FC0119
S1130900672F71917723E1F7329704C07C916D933F
S113091070836291AE17BF07C8F308950F931F93B6
S1130920CF93DF93FB01238121FD03C08FEF9FEF62
S11309302CC022FF16C0468157812481358142177D
S1130940530744F4A081B1819D012F5F3F4F318350
S113095020838C93268137812F5F3F4F37832683F3
S113096014C08B01EC01FB010084F185E02D099595
S1130970892BE1F6D80116968D919C9117970196D3
S113098017969C938E931697CE01DF91CF911F916A
S11309900F910895FA01AA27283051F1203181F1ED
S11309A0E8946F936E7F6E5F7F4F8F4F9F4FAF4F73
S11309B0B1E03ED0B4E03CD0670F781F891F9A1F86
S11309C0A11D680F791F8A1F911DA11D6A0F711D3A
S11309D0811D911DA11D20D009F468943F912AE046
S11309E0269F11243019305D3193DEF6CF0108952E
S11309F0462F4770405D4193B3E00FD0C9F7F6CF5F
S1130A00462F4F70405D4A3318F0495D31FD405226
S1130A10419302D0A9F7EACFB4E0A69597958795BC
S1130A2077956795BA95C9F700976105710508959B
S1130A309B01AC010A2E0694579547953795279547
S1130A40BA95C9F7620F731F841F951FA01D0895DF
S1130A502F923F924F925F926F927F928F929F92CA
S1130A60AF92BF92CF92DF92EF92FF920F931F93B8
S1130A70CF93DF93CDB7DEB7CA1BDB0B0FB6F89469
S1130A80DEBF0FBECDBF09942A88398848885F84A9
S1130A906E847D848C849B84AA84B984C884DF801A
S1130AA0EE80FD800C811B81AA81B981CE0FD11DFE
S1130AB00FB6F894DEBF0FBECDBFED010895F894D4
S1050AC0FFCF62
S1130AC22A2A2A2057656C636F6D652A2A2A2A000E
S1130AD22A392D646967697420436F756E7465726F
S1130AE2202A002530396C75004E756D62657220BE
S1090AF2436F756E7400F1
S9030000FC
