S01F00004C45445F546F67676C655F33735F4F4E5F35735F4F46462E737265632D
S11300000C9434000C943E000C943E000C943E007E
S11300100C943E000C943E000C943E000C943E0064
S11300200C943E000C943E000C943E000C943E0054
S11300300C943E000C943E000C943E000C943E0044
S11300400C943E000C943E000C943E000C943E0034
S11300500C943E000C943E000C943E000C943E0024
S11300600C943E000C943E0011241FBECFEFD8E048
S1130070DEBFCDBF0E9440000C945B000C940000D6
S113008080E28AB98BB180628BB92FEF8BE792E95A
S1130090215080409040E1F700C000008BB18F7D7B
S11300A08BB92FEF83E294EF215080409040E1F729
S10D00B000C00000E7CFF894FFCF72
S9030000FC
