:100000000C9434000C9446000C9446000C9446006A
:100010000C9446000C9446000C9446000C94460048
:100020000C9446000C9446000C9446000C94460038
:100030000C9446000C9446000C9446000C94460028
:100040000C9446000C9446000C9446000C94460018
:100050000C9446000C9446000C9446000C94460008
:100060000C9446000C94460011241FBECFEFD8E03C
:10007000DEBFCDBF21E0A0E0B1E001C01D92A03005
:10008000B207E1F70E946E000C94C6000C940000C9
:10009000ECE7F0E0808180648083EAE7F0E0808133
:1000A0008068808380818760808387B18E7F87B9F5
:1000B00008958770ECE7F0E09081987F892B80832A
:1000C000EAE7F0E080818064808380917A0086FD99
:1000D000FCCF809178009091790008950E94A4004F
:1000E0000E944800C0E0D0E080E00E9459008533C3
:1000F00023E0920770F4883622E0920768F48B3987
:1001000021E0920760F4833D910560F4892B69F446
:100110000EC0C4ECD9E00BC0C0EDD7E008C0CCEDF8
:10012000D5E005C0C8EED3E002C0C4EFD1E0CE01F7
:100130000E94C1008FEF93ED20E38150904020405A
:10014000E1F700C00000D0CF84B1826084B9E0E85C
:10015000F0E01082A1E8B0E01C9280818260808390
:100160008081806880838C9182618C9380E29EE4A0
:1001700090938700809386001092890010928800E7
:10018000089590938900809388000895F894FFCF94
:00000001FF
