:100000000C9434000C9453000C9451000C94510047
:100010000C9451000C9451000C9451000C9451001C
:100020000C9451000C9451000C9451000C9451000C
:100030000C9451000C9451000C9451000C945100FC
:100040000C9451000C9451000C9451000C945100EC
:100050000C9451000C9451000C9451000C945100DC
:100060000C9451000C94510011241FBECFEFD8E026
:10007000DEBFCDBF11E0A0E0B1E0EEE4F1E002C0F0
:1000800005900D92A630B107D9F721E0A6E0B1E0C6
:1000900001C01D92A830B207E1F70E9462000C94E3
:1000A000A5000C9400001F920F920FB60F9211241E
:1000B0008F9381E0809306018F910F900FBE0F9078
:1000C0001F9018958AB180648AB98AB18B7F8AB9EA
:1000D0008BB184608BB914BC15BC84B5836884BDB6
:1000E00084B58F7B84BD85B5836085BD16BC17BC88
:1000F0008DB381608DBB85B7826085BF85B78E7FEC
:1001000085BF7894809106018823E1F32FEF89EF72
:1001100090E0215080409040E1F700C00000E09165
:10012000070181E08E0F80930701F0E0E050FF4F60
:10013000808187BD80910701853010F01092070102
:0E014000109206014A9BFECFDDCFF894FFCF50
:06014E00004080BFFF002D
:00000001FF
