:100000000C9434000C9451000C9451000C94510049
:100010000C9451000C9451000C9451000C9451001C
:100020000C9451000C9451000C9451000C9451000C
:100030000C9451000C9451000C9451000C945100FC
:100040000C9451000C9451000C9451000C945100EC
:100050000C9451000C9451000C9451000C945100DC
:100060000C9451000C94510011241FBECFEFD8E026
:10007000DEBFCDBF11E0A0E0B1E0E4ECF2E002C0F1
:1000800005900D92A231B107D9F721E0A2E1B1E0CC
:1000900001C01D92A231B207E1F70E9453000C94F7
:1000A00060010C940000CF93DF93CDB7DEB7C45648
:1000B000D1090FB6F894DEBF0FBECDBF8AB1806400
:1000C0008AB98BB18F7B8BB90E94CE000E94BD0094
:1000D00080E091E00E94F30010E00E94EC008D307F
:1000E00019F08A3009F040C0E1E0F0E0EC0FFD1FAC
:1000F000E10FF11D108264E071E0CE0101960E94D3
:100100004F01892B41F067E071E0CE0101960E941A
:100110004F01892B19F48FEF87BD23C06AE071E08E
:10012000CE0101960E944F01892B41F06EE071E0F3
:10013000CE0101960E944F01892B11F417BC11C00A
:10014000CE0101960E943101282F30E0AFEFB0E0E0
:100150000E94220124E630E040E050E00E940001CD
:1001600027BD198210E0B9CFE1E0F0E0EC0FFD1FF0
:10017000E10FF11D80831F5FB0CF8AB180648AB91F
:1001800014BC15BC84B5836884BD84B58F7B84BDE5
:1001900085B5836085BD16BC17BC089587E680933E
:1001A000C400E1ECF0E080818861808380818B7FF6
:1001B0008083E2ECF0E080818660808380818F7CA8
:1001C00080838081877F808308959091C00095FF10
:1001D000FCCF8093C60008958091C0008823E4F787
:1001E0008091C6000895CF93DF93EC0103C00E9475
:1001F000E500219688818111FACFDF91CF91089592
:10020000A1E21A2EAA1BBB1BFD010DC0AA1FBB1F1A
:10021000EE1FFF1FA217B307E407F50720F0A21B8C
:10022000B30BE40BF50B661F771F881F991F1A94F9
:1002300069F760957095809590959B01AC01BD0123
:10024000CF010895A29FB001B39FC001A39F700D7D
:10025000811D1124911DB29F700D811D1124911DCE
:100260000895FC0188279927E89421912032E9F329
:10027000293010F02E30C8F32B3241F02D3239F4F2
:10028000689404C00E945801820F911D219120534F
:100290002A30C0F31EF4909581959F4F0895FB017D
:1002A000DC018D91019080190110D9F3990B08950B
:1002B0007AE0979F902D879F802D910D11240895AE
:0402C000F894FFCFE0
:1002C400204869004F4E006F6E004F4646006F662F
:0202D4006600C2
:00000001FF
