S01700004578745F496E745F747261666669632E7372656314
S11300000C9434000C945F000C9446000C9446004D
S11300100C9446000C9446000C9446000C94460044
S11300200C9446000C9446000C9446000C94460034
S11300300C9446000C9446000C9448000C94460022
S11300400C9446000C9446000C9446000C94460014
S11300500C9446000C9446000C9446000C94460004
S11300600C9446000C94460011241FBECFEFD8E038
S1130070DEBFCDBF21E0A0E0B1E001C01D92A430FD
S1130080B207E1F70E9472000C94FB000C9400008C
S11300901F920F920FB60F9211248F939F9380910A
S11300A00001909101010196909301018093000158
S11300B09F918F910F900FBE0F901F9018951F92D4
S11300C00F920FB60F9211248F9381E08093030156
S11300D010920101109200018F910F900FBE0F90AA
S11300E01F9018958AB18B7F8AB98BB184608BB9C4
S11300F084B1876084B985B1887F85B916BC82E0F4
S113010084BD83E085BD89EF87BDEEE6F0E08081A4
S1130110826080838DB381608DBBE9E6F0E08081ED
S11301208C7F8083789485B1816085B98091030147
S1130130811145C0809102018130C9F018F08230EC
S113014059F13DC0809100019091010180319742A5
S1130150B0F185B1887F85B985B1826085B981E0C8
S113016080930201109201011092000128C0809135
S1130170000190910101883B9B4008F185B1887F83
S113018085B985B1846085B982E0809302011092BB
S113019001011092000113C08091000190910101AE
S11301A08031974260F085B1887F85B985B18160DF
S11301B085B9109202011092010110920001809100
S11301C00301813009F0B2CF85B1887F85B985B14B
S11301D0816085B98091000190910101813197423C
S11301E008F4A4CF109203011092020110920101AD
S10D01F0109200019BCFF894FFCF9A
S9030000FC
