:100000000C9434000C9446000C9446000C9446006A
:100010000C9446000C9446000C9446000C94460048
:100020000C9446000C9446000C9446000C94460038
:100030000C9446000C9446000C9448000C94460026
:100040000C9446000C9446000C9446000C94460018
:100050000C9446000C9446000C9446000C94460008
:100060000C9446000C94460011241FBECFEFD8E03C
:10007000DEBFCDBF21E0A0E0B1E001C01D92A33002
:10008000B207E1F70E945F000C94BB000C940000E3
:100090001F920F920FB60F9211248F939F9380910E
:1000A000000190910101019690930101809300015C
:1000B0009F918F910F900FBE0F901F90189584B154
:1000C000876084B985B1887F85B916BC82E084BD1C
:1000D00083E085BD89EF87BDEEE6F0E08081826038
:1000E0008083789485B1816085B9809102018130E7
:1000F000C9F018F0823059F1F8CF80910001909149
:1001000001018031974288F385B1887F85B985B137
:10011000826085B981E08093020110920101109202
:100120000001E3CF8091000190910101883B9B4049
:10013000E0F285B1887F85B985B1846085B982E0B8
:10014000809302011092010110920001CECF8091A4
:100150000001909101018031974238F285B1887F8A
:1001600085B985B1816085B91092020110920101B3
:0A01700010920001BACFF894FFCFFF
:00000001FF
