:100000000C9434000C943E000C943E000C943E0082
:100010000C943E000C943E000C943E000C943E0068
:100020000C943E000C943E000C943E000C943E0058
:100030000C943E000C943E000C943E000C943E0048
:100040000C943E000C943E000C943E000C943E0038
:100050000C943E000C943E000C943E000C943E0028
:100060000C943E000C943E0011241FBECFEFD8E04C
:10007000DEBFCDBF0E9440000C9462000C940000D3
:1000800084B18F6084B915B88AB18B7F8AB98BB17E
:1000900084608BB920E04A99FECF3FEF80E792E081
:1000A000315080409040E1F700C000004A9907C0FD
:1000B00085B1807F922F9F70892B85B92F5F4A9BD6
:0800C000FECFE9CFF894FFCF59
:00000001FF
