:100000000C9434000C943E000C943E000C943E0082
:100010000C943E000C943E000C943E000C943E0068
:100020000C943E000C943E000C943E000C943E0058
:100030000C943E000C943E000C943E000C943E0048
:100040000C943E000C943E000C943E000C943E0038
:100050000C943E000C943E000C943E000C943E0028
:100060000C943E000C943E0011241FBECFEFD8E04C
:10007000DEBFCDBF0E9440000C946E000C940000C7
:100080008AB180628AB98AB180618AB984B18F7E6F
:1000900084B985B1806185B980E01C99FECF2FEFCE
:1000A00030E792E0215030409040E1F700C000007E
:1000B0001C99F3CF811108C08BB180628BB98BB1D1
:1000C0008F7E8BB981E007C08BB18F7D8BB98BB1EF
:1000D00080618BB980E01C9BFECFDFCFF894FFCF0F
:00000001FF
