S0140000496E6465705F74696D696E672E7372656339
S11300000C9434000C9446000C9446000C94460066
S11300100C9446000C9446000C9446000C945A0030
S11300200C9446000C9446000C9446000C94480032
S11300300C9446000C9446000C9446000C94460024
S11300400C9446000C9446000C9446000C94460014
S11300500C9446000C9446000C9446000C94460004
S11300600C9446000C94460011241FBECFEFD8E038
S1130070DEBFCDBF21E0A0E0B1E001C01D92A13000
S1130080B207E1F70E946B000C94A3000C940000EB
S11300901F920F920FB60F9211248F939F9395B1D5
S11300A082E0892785B99F918F910F900FBE0F90A1
S11300B01F9018951F920F920FB60F9211248F93D1
S11300C0809100018F5F809300018F910F900FBE8C
S11300D00F901F90189584B1866084B9A0EBB0E0AE
S11300E01C92E1EBF0E010828C9182608C93808111
S11300F0876080831092B20089EF8093B3001092DE
S113010080008DE08093810081E19AE790938900DB
S113011080938800EFE6F0E0808182608083E0E7EE
S1130120F0E0808182608083789480910001803245
S1130130E0F38091000180528093000195B184E046
S10D0140892785B9F2CFF894FFCFA8
S9030000FC
