S01500004175746F5F636F6F6C5F7379732E73726563AC
S11300000C9434000C9446000C9446000C94460066
S11300100C9446000C9446000C9446000C94460044
S11300200C9446000C9446000C9446000C94460034
S11300300C9446000C9446000C9446000C94460024
S11300400C9446000C9446000C9446000C94460014
S11300500C9446000C9446000C9446000C94460004
S11300600C9446000C94460011241FBECFEFD8E038
S1130070DEBFCDBF21E0A0E0B1E001C01D92A03001
S1130080B207E1F70E948D000C94B2000C940000BA
S11300908AB180648AB984B1816084B984B1826090
S11300A084B985B1816085B985B18D7F85B914BC6A
S11300B015BC84B5836884BD84B58F7B84BD85B548
S11300C0836085BD16BC17BC089587BD0895ECE711
S11300D0F0E0808180648083EAE7F0E080818068DA
S11300E0808380818760808387B18E7F87B90895FC
S11300F08770ECE7F0E09081987F892B8083EAE7B2
S1130100F0E080818064808380917A0086FDFCCF5A
S1130110809178009091790008950E9448000E948F
S113012067008AB184608AB9C0E080E00E947800E8
S1130130853323E0920758F4883622E0920748F486
S11301408B3921E0920738F4892B39F407C0CFEFBB
S113015005C0C8EC03C0C2E801C0C0E08C2F0E94F7
S10B01606500E3CFF894FFCF22
S9030000FC
